:020000040800F2
:10000000900600202902000831020008330200088F
:10001000350200083702000839020008000000001D
:100020000000000000000000000000003B0200088B
:100030003D020008000000003F02000841020008E5
:10004000430200084302000843020008430200087C
:10005000430200084302000843020008430200086C
:10006000430200084302000843020008430200085C
:10007000430200084302000843020008430200084C
:10008000430200084302000843020008430200083C
:100090004302000843020008430200084B03000823
:1000A000430200084302000843020008430200081C
:1000B000430200084302000843020008430200080C
:1000C00043020008430200084302000843020008FC
:1000D00043020008430200084302000843020008EC
:1000E00049030008430200084302000843020008D5
:1000F00043020008430200084302000843020008CC
:1001000043020008430200084302000843020008BB
:1001100043020008430200084302000843020008AB
:10012000430200084302000843020008430200089B
:10013000430200084302000843020008430200088B
:10014000430200084302000843020008430200087B
:10015000430200084302000843020008430200086B
:10016000430200084302000843020008430200085B
:10017000430200084302000843020008430200084B
:10018000430200084302000800F002F800F03CF8C7
:100190000AA090E8000C82448344AAF10107DA45E2
:1001A00001D100F031F8AFF2090EBAE80F0013F0F8
:1001B000010F18BFFB1A43F001031847401A000053
:1001C000601A0000103A24BF78C878C1FAD85207E4
:1001D00024BF30C830C144BF04680C6070470000C1
:1001E0000023002400250026103A28BF78C1FBD840
:1001F000520728BF30C148BF0B6070471FB500F0E1
:1002000077FF1FBD10B510BD00F036F81146FFF79F
:10021000F5FF00F039FF00F054F803B4FFF7F2FFE8
:1002200003BC00F057F80000094880470948004720
:10023000FEE7FEE7FEE7FEE7FEE7FEE7FEE7FEE796
:10024000FEE7FEE704480549054A064B70470000F3
:10025000DD0E0008890100089000002090060020B3
:100260009002002090020020704770477047000005
:1002700000487047300000207546FFF7F9FFAE4692
:1002800005006946534620F00700854618B020B5A2
:10029000FFF7D8FFBDE820404FF000064FF0000701
:1002A0004FF000084FF0000B21F00701AC46ACE81E
:1002B000C009ACE8C009ACE8C009ACE8C0098D468B
:1002C000704710B50446AFF300802046BDE81040EB
:1002D000FFF7A3BF01491820ABBEFEE726000200CE
:1002E000704710B50246002405E04FF47A7000F024
:1002F00005F8601C84B29442F7DB10BD08B500EB32
:100300000011009102E00099491E00910099002916
:10031000F9D108BD10B56FF07F4000F05FFC0648D2
:1003200000F020FD002000F023FD04A2002108467B
:1003300000F05AFC10BD000024000020456C6576DA
:1003400061746F7200000000704770471CB5012196
:10035000382000F013FD02208DF8040003208DF8F2
:10036000050000208DF806008DF807004CF2030010
:1003700000906946374800F037FA0C220E213548C4
:1003800000F07AFA0C220F21324800F075FA0C22A4
:100390000021304800F070FA0C2201212D4800F0B5
:1003A0006BFA4FF4F060009069462B4800F01CFA9D
:1003B0000C220721284800F05FFA0C220821264869
:1003C00000F05AFA0C220921234800F055FA0C22B9
:1003D0000A21214800F050FAB020009002208DF848
:1003E000040003208DF8050000208DF806008DF82C
:1003F00007006946174800F0F7F90C220421154858
:1004000000F03AFA0C220521124800F035FA0C22CD
:100410000721104800F030FA0120009069460F488B
:1004200000F0E2F90C2200210C4800F025FA8220AD
:10043000009001208DF8040002208DF805000020B6
:100440008DF806008DF807006946044800F0CCF9E5
:100450001CBD0000000C02400010024000140240CD
:1004600000B597B00121084600F098FC03200190E8
:100470000290039000200490022005900690C00690
:1004800007900020089009900A900B900C900D9016
:100490000E900F9010904FF4805011900020129009
:1004A0001390149001A81590169008A800F020F859
:1004B0000121002000F002F817B000BD51B1820008
:1004C000A2F1C042126842F001038200A2F1C042D0
:1004D000136009E08200A2F1C0421268034B1A4087
:1004E0008300A3F1C0431A6070470000FEFF0F00B5
:1004F00030B50021002200230468A400A4F1C04408
:100500002168424C2140D0E901452C43C5682C4369
:1005100005692C4345692C4385692C43C5692C43E7
:10052000056A2C43456A2C43856A2C43C56A2C43D3
:10053000056B2C4321430468A400A4F1C04421604E
:100540008468082C0BD10468A400A4F1C04424687A
:1005500044F040050468A400A4F1C0442560046888
:10056000641CA400A4F1C044226802F04042446B21
:100570002468456B6D6844EA0514456BAD6844EA30
:100580000524456BAD8944EA0544456B2D8A44EA50
:100590000554456B2D7D44EA0564456BAD692C43DC
:1005A00022430468641CA400A4F1C0442260C46A0D
:1005B000B4F5804F20D10468A400A4F1C044D4F85D
:1005C0000431134C2340846B2468856B6D6844EAC6
:1005D0000514856BAD6844EA0524856BAD8944EA52
:1005E0000544856BAD692C4323430468A400A4F142
:1005F000C044C4F8043107E06FF070450468A400FB
:10060000A4F1C044C4F8045130BD00008000F7FFDD
:100610000000F0CF5A48006840F480405849086014
:1006200057481038006840F4807055491039086008
:100630005448006840F48070524908600846406899
:1006400020F0100048600846806840F40070886020
:100650000846C06820F44070C8600846006840F052
:10066000010008600846406820F001004860084624
:10067000806840F0020088600846C06820F00300EF
:10068000C8600846006840F00800086008464068F6
:1006900020F0020048600846806840F0080088604A
:1006A0000846C06840F00800C8600846006A40F08C
:1006B000500008620846006840F0200008600846C4
:1006C000406820F0040048600846806840F0200040
:1006D00088600846C06840F02000C8600846006A8C
:1006E00040F4A06008620846006840F0800008609E
:1006F0000846406820F0080048600846806840F0DE
:10070000800088600846C06840F08000C8600846E5
:10071000006A40F4A04008621B48008840F00400D2
:10072000194908800846008820F4004008800846DF
:10073000008820F4006008800846008840F40070BB
:1007400008800846008840F48070088008460088C9
:1007500020F0800008800846008840F020000880D3
:100760000846008840F0020008800846008840F0F3
:10077000010008800846008840F04000088070476B
:1007800040380240002002400038004010B50022EE
:10079000002301241348406940F0100011494861CA
:1007A0000846406920F001004861204600F006FB41
:1007B000104600F003FB0B48406940F00100094976
:1007C000486105230846406920F001004861184649
:1007D00000F0F4FA0348406940F001000149486123
:1007E00010BD000000200240F0B50A4600210023A1
:1007F000002400BF3DE0012505FA01F3156805EA74
:1008000003049C4234D105684F000326BE40B54323
:10081000056015794E00B5400668354305601579C9
:10082000012D02D01579022D16D185684F000326BF
:10083000BE40B543856055794E00B5408668354366
:100840008560456801268E40B543456045689679C8
:100850008E40B6B235434560C5684F000326BE40A2
:10086000B543C560D5794E00B540C6683543C5600F
:10087000491C1029BFD3F0BDF0B5002300244D075B
:10088000ED0E02FA05F3CE1000F1200555F82650C2
:100890004E07F70E0F26BE40B543CF1000F12006DD
:1008A00046F82750CE1000F1200555F8265045EAAD
:1008B0000304CE1000F1200545F82640F0BD70B5C8
:1008C00006468023A0220021084600F012F900F01D
:1008D0004FF9002508E0002403E0304600F03AF923
:1008E000641CA02CF9D36D1C802DF4D300F02DF9DD
:1008F00070BD000010B5FFF729FDFFF7B1FD8020A6
:1009000072490880022008800A2000F01BFB0220A8
:100910006E49891C08800A2000F014FB02206B49F4
:100920000880322000F00EFB012000F026F9322072
:1009300000F008FB112000F020F9782000F002FB05
:10094000262000F01AF9042000F01BF9B12000F075
:1009500014F90A2000F015F9142000F012F9C02053
:1009600000F00BF9082000F00CF9002000F009F964
:10097000C12000F002F9052000F003F9C52000F0C5
:10098000FCF8382000F0FDF8352000F0FAF83A20A5
:1009900000F0F3F8062000F0F4F82A2000F0EDF85B
:1009A000002000F0EEF8002000F0EBF8002000F04E
:1009B000E8F87F2000F0E5F82B2000F0DEF80020BA
:1009C00000F0DFF8002000F0DCF8002000F0D9F89B
:1009D0009F2000F0D6F8362000F0CFF8702000F00D
:1009E000D0F8B72000F0C9F8002000F0CAF8F220D3
:1009F00000F0C3F8012000F0C4F8E02000F0BDF8DA
:100A00003F2000F0BEF8222000F0BBF8202000F0CC
:100A1000B8F8302000F0B5F8292000F0B2F80C202A
:100A200000F0AFF84E2000F0ACF8B72000F0A9F8C5
:100A30003C2000F0A6F8192000F0A3F8222000F0D6
:100A4000A0F81E2000F09DF8022000F09AF8012086
:100A500000F097F8002000F094F8E12000F08DF805
:100A6000002000F08EF81B2000F08BF81F2000F013
:100A700088F80F2000F085F8162000F082F8132087
:100A800000F07FF8312000F07CF8842000F079F845
:100A9000432000F076F8062000F073F81D2000F0E7
:100AA00070F8212000F06DF83D2000F06AF83E203B
:100AB00000F067F83F2000F064F8292000F05DF8AE
:100AC0000121002000F004F810BD000018140240BD
:100AD00070B505460E462024362000F04EF80EB1C3
:100AE00044F080040DB144F04004E0B200F049F855
:100AF00070BD2DE9F04106460F4614461D462A20DA
:100B000000F03BF8A02C00DDA024802D00DD802526
:100B1000002000F036F8F0B200F033F8002000F0CA
:100B200030F8E0B200F02DF82B2000F026F800207D
:100B300000F027F8F8B200F024F8002000F021F8C7
:100B4000E8B200F01EF8BDE8F08110B5002000F01A
:100B500014F810BD10B50446C4F3074000F011F8B6
:100B6000C4F3072000F00DF8E0B200F00AF810BD61
:100B700010B52C2000F001F810BD4FF0C0410870F6
:100B800070474FF0C04148707047000010B51148E1
:100B9000006800F47F44B4F57F4F0CD10E48007814
:100BA00008B9204610BD0A20FFF79BFB00200A4928
:100BB00008702046F6E70848007810B14FF47F40EF
:100BC000F0E70120044908700A20FFF78AFB20465D
:100BD000E8E70000101C02400200002010B50446A7
:100BE0002046FFF76CFE10BD2DE9F04104460D468E
:100BF000164600F08BF8C088401C604387B200F0B6
:100C000085F8808868431FFA80F8324639464046A6
:100C100000F060F8BDE8F0812DE9F04705460E468A
:100C200017462948006880882844A02801DBBDE8D1
:100C3000F08725480068C0883044401E83B22248AF
:100C400000688088401E284482B231462846FFF75B
:100C500050FF1D4800688088082803DA1A48006899
:100C6000808800E008208246FFF782FF002422E00F
:100C700015480068006814490968098907FB0141A3
:100C800010F801804FF0000911E008F0800020B159
:100C90000E480068FFF75EFF03E00D480068FFF7AD
:100CA00059FF4FEA48604FEA106809F10109D14540
:100CB000EBDB601C84B2044800680089A042D7DCEA
:100CC000FFF743FF00BFB2E7040000201000002040
:100CD000080000202DE9F04105460F461446002685
:100CE0000CE014F8012B08490968898806FB0151BA
:100CF00088B23946FFF790FF701C86B22078002832
:100D0000EFD1BDE8F0810000040000200148006838
:100D1000704700000400002010B500200B49086057
:100D2000084600680A4908606FF07F40094908607A
:100D30000846006808490860084809490860FFF744
:100D4000D9FD6FF07F40FFF749FF10BD080000207C
:100D50000C000020100000201400002018000020CB
:100D600004000020014908607047000004000020D2
:100D700001490860704700001000002029B1064AB0
:100D800012680243044B1A6004E0034A126882436B
:100D9000014B1A60704700003038024029B1064A02
:100DA00012680243044B1A6004E0034A126882434B
:100DB000014B1A607047000038380240014600BFFE
:100DC0000A48008800F002000028F9D00748001DFA
:100DD000018000BF0548008800F001000028F9D01C
:100DE0000248001D0088C0B270470000083800406B
:100DF0000CB50020019000903448006840F4803029
:100E00003249086000BF3148006800F400300090AB
:100E10000198401C0190009818B90198B0F5A04FB6
:100E2000F1D12A48006800F4003010B10120009090
:100E300001E0002000900098012846D1234840306E
:100E4000006840F080502149403108602048006827
:100E500040F440401E4908601C48083000681B49A7
:100E6000083108600846006840F400400860084601
:100E7000006840F4A05008601648091F0860081F69
:100E8000006840F08070091F086000BF0F480068CC
:100E900000F000700028F9D040F205700E4908609B
:100EA0000A480830006820F003000849083108604B
:100EB0000846006840F00200086000BF03480830A0
:100EC000006800F00C000828F8D10CBD0038024082
:100ED0000070004008544007003C024010B515481F
:100EE000006840F47000134908601348006840F03F
:100EF00001001149086000200F49083108600E48C0
:100F000000680E4908400C4908600D48091D08603A
:100F1000081F006820F48020091F0860002006498F
:100F20000C310860FFF764FF4FF000600149803921
:100F3000086010BD88ED00E000380240FFFFF6FEBB
:100F40001030002410B50246002405E04FF47A70FA
:100F500000F005F8601C84B29442F7DB10BD08B5C0
:100F600000EB40014900009102E00099491E009108
:100F700000990029F9D108BD1748006840F08000A9
:100F80001549086014481430006840F48040124944
:100F9000143108601148006880B210490860104898
:100FA000406940F4E0410E4841610E48006840F459
:100FB00000400C4908600B480C38006840F40040C1
:100FC00008490C3908600848006840F480704FF008
:100FD000E021C1F80401704730380240001C024093
:100FE000003801400C3C014004E100E02248006868
:100FF00040F04000204908602048006845F2555103
:1010000008431E490860081D006820F0FF00091D04
:101010000860081D006845F255510843174908311A
:1010200008601548006840F08000134908601448C3
:10103000006880B21249086011480C30006880B224
:101040000F490C3108600C48006840F020000A4944
:1010500008600C48006840F480200A490860081DB8
:10106000006820F40070091D0860081D006840F445
:101070008020091D08607047303802400018024087
:10108000001C024000140240FFF7B0FFFFF774FF9E
:10109000FFF742FEFFF7BEFAFFF778FB6420FFF789
:1010A00020F9FFF737F900200F4908700F49087041
:1010B00018E0FFF76BFDB0F57D4F0AD0B0F57E4F1D
:1010C0000FD1094890F9000080F00200064908702D
:1010D00007E0054890F9000080F00100024908701F
:1010E00000BF00BFE5E70000000000200100002075
:1010F0004FF04070E1EE100A704700000000000061
:10110000000000000000000000001C101010000093
:1011100000000000F01010101010101010101C0033
:101120000000101010101010F0000000101010102F
:10113000101010101010000000000000FC00000053
:1011400000000030787878300000FCFCFCCC84840F
:1011500084CCFCFC00000030484848300000FCFC17
:10116000FCCCB4B4B4CCFCFC001C0C0C1410304807
:1011700048300038444438107C10101000203038BB
:101180002C2424206060000C342C3424242C6C602B
:1011900000545428286C2828545410101010101093
:1011A000FC10101000040C1C3C7C3C1C0C0410387F
:1011B000101010101010381028282828282828006F
:1011C00028283C54545434141414141410101010BF
:1011D0001010FC000000000000000000FC101010C7
:1011E000101010101010F0101010103810101010F7
:1011F000101010101010101010101C101010000003
:101200000000087C0800000000000000207C200096
:1012100000000000000000000000000000000000CE
:1012200000000000000000000000000000000000BE
:1012300000000000000000000000000000000000AE
:1012400000000000101010101010100010102828BE
:10125000000000000000000014147C282828FC5026
:1012600050501038545030181414543824545828FE
:1012700010102834544830484848305448484834BE
:1012800010100000000000000000081010202020B6
:10129000202020102010100808080808081000005E
:1012A0000010107C1028000000000010107C1010AE
:1012B000000000000000000000001010000000000E
:1012C000007C000000000000000000000000101082
:1012D000040408081010202040403844444444448A
:1012E00044444438103010101010101010103844BE
:1012F000440408102040407C38444404180404444A
:101300004438081818282848487C08087C40404081
:1013100078440404443838444040784444444438D1
:101320007C444404080810101010384444443844E5
:101330004444443838444444443C040444380000A1
:10134000101000000010100000001010000000102D
:1013500010200000040830403008040000000000A5
:101360007C007C0000000000402018041820400091
:101370003844440408101000101018244C545454DD
:10138000545C40381010102828287C444444784489
:1013900044447844444444783844444040404044C1
:1013A0004438784444444444444444787C40404075
:1013B0007C404040407C7C40404078404040404041
:1013C000384444405C4444444C34444444447C44A5
:1013D000444444441010101010101010101008084D
:1013E00008080808084848304448485060505048A9
:1013F00048444040404040404040407C44446C6C45
:101400006C54545444444444646454544C4C4444D4
:10141000384444444444444444387844444444783C
:101420004040404038444444444444445438784460
:101430004444447848444444384444201008044414
:1014400044387C1010101010101010104444444404
:101450004444444444384444444428282810101048
:1014600054545454545454282828444428281010C0
:1014700028284444444444282828101010107C0490
:10148000080810102020407C302020202020202020
:101490002020545454FC5454542828283010101040
:1014A0001010101010103048000000000000000064
:1014B00000000000000000000000201000000000FC
:1014C00000000000000000304838484848344040E0
:1014D000407844444444447800000038444040404C
:1014E00044380404043C44444444443C0000003870
:1014F00044447C40443810202070202020202020AC
:101500000000003C4444443C04444040407844448F
:10151000444444441010001010101010101010100B
:1015200000101010101010104040404448506050FF
:101530004844001010101010101010100000006827
:101540005454545454540000007844444444444493
:1015500000000038444444444438000000784444C7
:10156000444478400000003C444444443C040000AF
:10157000002C302020202020000000384440380477
:10158000443800202078202020202018000000442B
:1015900044444444443C000000444444282810107F
:1015A00000000054545454382828000000444428B3
:1015B000102844440000004444442828101000002F
:1015C000007C04081020407C0810101010601010DF
:1015D00010101010101010101010101040202020AB
:1015E00020182020202000000000003448000000C7
:1015F0000078484848484848487800000000000003
:101600000000000000000000000000001E1010108C
:101610001010000000000000F0101010101010104A
:10162000101010101E0000000000101010101010FC
:10163000F00000000000101010101010101010101A
:101640001010000000000000FE000000000000007C
:101650000000387C7C7C38000000FEFEFEFEC68266
:101660008282C6FEFEFE000000003844444438007A
:101670000000FEFEFEFEC6BABABAC6FEFEFE000EB0
:10168000060A0A10304848483000003844443810F0
:10169000107C101010000010181C1612121214707A
:1016A000600000063A22263A2222266660000010D8
:1016B000543828286C2838541000101010101010BE
:1016C000FE10101010100002060E1E3E7E3E1E0E72
:1016D0000602103854101010101010543810002842
:1016E000282828282828002828003E4A4A4A4A3A1A
:1016F0000A0A0A0A0A0A101010101010FE00000050
:101700000000000000000000FE101010101010106B
:1017100010101010F010101010101038541010107D
:101720001010101010101010101010101E101010AB
:1017300010100000000008047E04080000000000F3
:10174000000010207E2010000000000000000000BB
:101750000000000000000000000000000000000089
:101760000000000000000000000000000000000079
:101770000000000000000000000000000000000069
:1017800000000000000000101010101010100010D9
:1017900010000028280000000000000000000012D7
:1017A00012127E2424FC4848480010385450503807
:1017B00014141454381000225254280810142A2AE1
:1017C0004400001824242810284A44443A000010F9
:1017D0001000000000000000000008101020202071
:1017E00020202010100820101008080808080810F1
:1017F00010200000000010107C10280000000000E5
:10180000000010107C10100000000000000000001C
:101810000000001010200000000000007E0000000A
:101820000000000000000000000000101000020294
:1018300004040808101020204040003C424242426C
:10184000424242423C0000103010101010101010A4
:101850001000003C42420204182040407E00003C40
:101860004242021C020242423C00000C0C141424AE
:1018700024447E040400007E4040407C4202024238
:101880003C00003C4240407C424242423C00007EE0
:1018900042420404040808080800003C4242423C5A
:1018A000424242423C00003C424242423E0202422C
:1018B0003C000000001800000000180000000000BC
:1018C0000018000000001808100000000006083092
:1018D000403008060000000000007E00007E00008E
:1018E000000000000060100C020C106000000038C6
:1018F00044440408101000101000001C224E5252E4
:1019000052525E403C0000101010282828384444F1
:101910004400007C4242427C424242427C00003C05
:1019200042424040404042423C00007844424242F1
:10193000424242447800007E4040407E4040404069
:101940007E00007E4040407C404040404000003CE3
:10195000424240404E4242463A0000424242427EAB
:10196000424242424200001010101010101010109D
:101970001000000404040404040444443800004239
:10198000444850606050484442000040404040405D
:10199000404040407E000044446C6C6C54545444BD
:1019A0004400004444646454544C4C4444000018C3
:1019B00024424242424242241800007C42424242B7
:1019C0007C4040404000003C424242424242524A37
:1019D0003C02007C424242427C4242424200003C85
:1019E000424240300C0242423C00007C1010101079
:1019F0001010101010000042424242424242424245
:101A00003C0000444444442828281010100000548E
:101A100054545454547C2828280000444428281046
:101A2000102828444400004444444428281010103E
:101A30001000007E02040408101020407E001810E0
:101A40001010101010101010101800545454FE54A0
:101A50005454382828003010101010101010101096
:101A600010300010284400000000000000000000BA
:101A700000000000000000007E00002010000000B8
:101A8000000000000000000000003844043C444412
:101A90003A00004040407844444444447800000008
:101AA00000003844404040443800000404043C44F2
:101AB000444444443C00000000003844447C40441A
:101AC000380000081010381010101010100000001E
:101AD00000003C4444443C044438004040407844C6
:101AE0004444444444000010100010101010101022
:101AF00010000010100010101010101010600040A6
:101B000040404448506050484400001010101010ED
:101B10001010101010000000000068545454545469
:101B20005400000000007844444444444400000051
:101B30000000384444444444380000000000784425
:101B4000444444784040000000003C444444443C49
:101B50000404000000002C30202020202000000081
:101B60000000384440380444380000002020782029
:101B70002020202018000000000044444444444435
:101B80003C000000000044444428281010000000DD
:101B900000005454545438282800000000004444E5
:101BA0002810284444000000000044444428281021
:101BB0001060000000007C04081020407C00081029
:101BC00010101060101010101008101010101010CD
:101BD00010101010101020101010100C10101010F9
:101BE00010200000000000324C0000000000000047
:101BF0007C444444444444447C0000001C1C0008D1
:101C00000000002030000000C40100084C1C000847
:101C10003000002060060000E00100080000000025
:101C200000000000000000000000000000000000B4
:101C300000000000FA10000806000A000A00000078
:0C1C4000FA15000808000C000C00000061
:040000050800018965
:00000001FF
